{
  "_format": "hh-sol-artifact-1",
  "contractName": "StrategyVault_v1",
  "sourceName": "contracts/StrategyVault_v1.sol",
  "abi": [
    {
      "inputs": [
        {
          "internalType": "address",
          "name": "_router",
          "type": "address"
        },
        {
          "internalType": "address",
          "name": "_link",
          "type": "address"
        }
      ],
      "stateMutability": "nonpayable",
      "type": "constructor"
    },
    {
      "inputs": [
        {
          "internalType": "uint64",
          "name": "destinationChainSelector",
          "type": "uint64"
        }
      ],
      "name": "DestinationChainNotAllowlisted",
      "type": "error"
    },
    {
      "inputs": [
        {
          "internalType": "address",
          "name": "owner",
          "type": "address"
        },
        {
          "internalType": "address",
          "name": "target",
          "type": "address"
        },
        {
          "internalType": "uint256",
          "name": "value",
          "type": "uint256"
        }
      ],
      "name": "FailedToWithdrawEth",
      "type": "error"
    },
    {
      "inputs": [],
      "name": "InvalidReceiverAddress",
      "type": "error"
    },
    {
      "inputs": [
        {
          "internalType": "uint256",
          "name": "currentBalance",
          "type": "uint256"
        },
        {
          "internalType": "uint256",
          "name": "calculatedFees",
          "type": "uint256"
        }
      ],
      "name": "NotEnoughBalance",
      "type": "error"
    },
    {
      "inputs": [],
      "name": "NothingToWithdraw",
      "type": "error"
    },
    {
      "anonymous": false,
      "inputs": [
        {
          "indexed": true,
          "internalType": "address",
          "name": "from",
          "type": "address"
        },
        {
          "indexed": true,
          "internalType": "address",
          "name": "to",
          "type": "address"
        }
      ],
      "name": "OwnershipTransferRequested",
      "type": "event"
    },
    {
      "anonymous": false,
      "inputs": [
        {
          "indexed": true,
          "internalType": "address",
          "name": "from",
          "type": "address"
        },
        {
          "indexed": true,
          "internalType": "address",
          "name": "to",
          "type": "address"
        }
      ],
      "name": "OwnershipTransferred",
      "type": "event"
    },
    {
      "anonymous": false,
      "inputs": [
        {
          "indexed": true,
          "internalType": "bytes32",
          "name": "messageId",
          "type": "bytes32"
        },
        {
          "indexed": true,
          "internalType": "uint64",
          "name": "destinationChainSelector",
          "type": "uint64"
        },
        {
          "indexed": false,
          "internalType": "address",
          "name": "receiver",
          "type": "address"
        },
        {
          "indexed": false,
          "internalType": "address",
          "name": "token",
          "type": "address"
        },
        {
          "indexed": false,
          "internalType": "uint256",
          "name": "tokenAmount",
          "type": "uint256"
        },
        {
          "indexed": false,
          "internalType": "address",
          "name": "feeToken",
          "type": "address"
        },
        {
          "indexed": false,
          "internalType": "uint256",
          "name": "fees",
          "type": "uint256"
        }
      ],
      "name": "TokensTransferred",
      "type": "event"
    },
    {
      "inputs": [],
      "name": "acceptOwnership",
      "outputs": [],
      "stateMutability": "nonpayable",
      "type": "function"
    },
    {
      "inputs": [
        {
          "internalType": "uint64",
          "name": "_destinationChainSelector",
          "type": "uint64"
        },
        {
          "internalType": "bool",
          "name": "allowed",
          "type": "bool"
        }
      ],
      "name": "allowlistDestinationChain",
      "outputs": [],
      "stateMutability": "nonpayable",
      "type": "function"
    },
    {
      "inputs": [
        {
          "internalType": "uint64",
          "name": "",
          "type": "uint64"
        }
      ],
      "name": "allowlistedChains",
      "outputs": [
        {
          "internalType": "bool",
          "name": "",
          "type": "bool"
        }
      ],
      "stateMutability": "view",
      "type": "function"
    },
    {
      "inputs": [],
      "name": "owner",
      "outputs": [
        {
          "internalType": "address",
          "name": "",
          "type": "address"
        }
      ],
      "stateMutability": "view",
      "type": "function"
    },
    {
      "inputs": [
        {
          "internalType": "address",
          "name": "to",
          "type": "address"
        }
      ],
      "name": "transferOwnership",
      "outputs": [],
      "stateMutability": "nonpayable",
      "type": "function"
    },
    {
      "inputs": [
        {
          "internalType": "uint64",
          "name": "_destinationChainSelector",
          "type": "uint64"
        },
        {
          "internalType": "address",
          "name": "_receiver",
          "type": "address"
        },
        {
          "internalType": "address",
          "name": "_token",
          "type": "address"
        },
        {
          "internalType": "uint256",
          "name": "_amount",
          "type": "uint256"
        }
      ],
      "name": "transferTokensPayNative",
      "outputs": [
        {
          "internalType": "bytes32",
          "name": "messageId",
          "type": "bytes32"
        }
      ],
      "stateMutability": "nonpayable",
      "type": "function"
    },
    {
      "inputs": [
        {
          "internalType": "address",
          "name": "_beneficiary",
          "type": "address"
        }
      ],
      "name": "withdraw",
      "outputs": [],
      "stateMutability": "nonpayable",
      "type": "function"
    },
    {
      "inputs": [
        {
          "internalType": "address",
          "name": "_beneficiary",
          "type": "address"
        },
        {
          "internalType": "address",
          "name": "_token",
          "type": "address"
        }
      ],
      "name": "withdrawToken",
      "outputs": [],
      "stateMutability": "nonpayable",
      "type": "function"
    },
    {
      "stateMutability": "payable",
      "type": "receive"
    }
  ],
  "bytecode": "0x60806040523480156200001157600080fd5b506040516200204a3803806200204a833981810160405281019062000037919062000318565b338060008073ffffffffffffffffffffffffffffffffffffffff168273ffffffffffffffffffffffffffffffffffffffff1603620000ac576040517f08c379a0000000000000000000000000000000000000000000000000000000008152600401620000a390620003c0565b60405180910390fd5b816000806101000a81548173ffffffffffffffffffffffffffffffffffffffff021916908373ffffffffffffffffffffffffffffffffffffffff160217905550600073ffffffffffffffffffffffffffffffffffffffff168173ffffffffffffffffffffffffffffffffffffffff1614620001335762000132816200017f60201b60201c565b5b50505081600360006101000a81548173ffffffffffffffffffffffffffffffffffffffff021916908373ffffffffffffffffffffffffffffffffffffffff160217905550505062000454565b3373ffffffffffffffffffffffffffffffffffffffff168173ffffffffffffffffffffffffffffffffffffffff1603620001f0576040517f08c379a0000000000000000000000000000000000000000000000000000000008152600401620001e79062000432565b60405180910390fd5b80600160006101000a81548173ffffffffffffffffffffffffffffffffffffffff021916908373ffffffffffffffffffffffffffffffffffffffff1602179055508073ffffffffffffffffffffffffffffffffffffffff1660008054906101000a900473ffffffffffffffffffffffffffffffffffffffff1673ffffffffffffffffffffffffffffffffffffffff167fed8889f560326eb138920d842192f0eb3dd22b4f139c87a2c57538e05bae127860405160405180910390a350565b600080fd5b600073ffffffffffffffffffffffffffffffffffffffff82169050919050565b6000620002e082620002b3565b9050919050565b620002f281620002d3565b8114620002fe57600080fd5b50565b6000815190506200031281620002e7565b92915050565b60008060408385031215620003325762000331620002ae565b5b6000620003428582860162000301565b9250506020620003558582860162000301565b9150509250929050565b600082825260208201905092915050565b7f43616e6e6f7420736574206f776e657220746f207a65726f0000000000000000600082015250565b6000620003a86018836200035f565b9150620003b58262000370565b602082019050919050565b60006020820190508181036000830152620003db8162000399565b9050919050565b7f43616e6e6f74207472616e7366657220746f2073656c66000000000000000000600082015250565b60006200041a6017836200035f565b91506200042782620003e2565b602082019050919050565b600060208201905081810360008301526200044d816200040b565b9050919050565b611be680620004646000396000f3fe60806040526004361061007f5760003560e01c806379ba50971161004e57806379ba5097146101575780638da5cb5b1461016e57806396d3b83d14610199578063f2fde38b146101c257610086565b80630bb106eb1461008b5780633aeac4e1146100c857806351419b4b146100f157806351cff8d91461012e57610086565b3661008657005b600080fd5b34801561009757600080fd5b506100b260048036038101906100ad9190611068565b6101eb565b6040516100bf91906110b0565b60405180910390f35b3480156100d457600080fd5b506100ef60048036038101906100ea9190611129565b61020b565b005b3480156100fd57600080fd5b506101186004803603810190610113919061119f565b6102fb565b604051610125919061121f565b60405180910390f35b34801561013a57600080fd5b506101556004803603810190610150919061123a565b61067f565b005b34801561016357600080fd5b5061016c61077d565b005b34801561017a57600080fd5b50610183610912565b6040516101909190611276565b60405180910390f35b3480156101a557600080fd5b506101c060048036038101906101bb91906112bd565b61093b565b005b3480156101ce57600080fd5b506101e960048036038101906101e4919061123a565b610986565b005b60026020528060005260406000206000915054906101000a900460ff1681565b61021361099a565b60008173ffffffffffffffffffffffffffffffffffffffff166370a08231306040518263ffffffff1660e01b815260040161024e9190611276565b602060405180830381865afa15801561026b573d6000803e3d6000fd5b505050506040513d601f19601f8201168201806040525081019061028f9190611312565b9050600081036102cb576040517fd0d04f6000000000000000000000000000000000000000000000000000000000815260040160405180910390fd5b6102f683828473ffffffffffffffffffffffffffffffffffffffff16610a2a9092919063ffffffff16565b505050565b600061030561099a565b84600260008267ffffffffffffffff1667ffffffffffffffff16815260200190815260200160002060009054906101000a900460ff1661037c57806040517f0a503cdb000000000000000000000000000000000000000000000000000000008152600401610373919061134e565b60405180910390fd5b84600073ffffffffffffffffffffffffffffffffffffffff168173ffffffffffffffffffffffffffffffffffffffff16036103e3576040517fa05ff47e00000000000000000000000000000000000000000000000000000000815260040160405180910390fd5b60006103f28787876000610ab0565b90506000600360009054906101000a900473ffffffffffffffffffffffffffffffffffffffff1673ffffffffffffffffffffffffffffffffffffffff166320487ded8a846040518363ffffffff1660e01b8152600401610453929190611580565b602060405180830381865afa158015610470573d6000803e3d6000fd5b505050506040513d601f19601f820116820180604052508101906104949190611312565b9050478111156104dd5747816040517f8f0f42060000000000000000000000000000000000000000000000000000000081526004016104d49291906115bf565b60405180910390fd5b8673ffffffffffffffffffffffffffffffffffffffff1663095ea7b3600360009054906101000a900473ffffffffffffffffffffffffffffffffffffffff16886040518363ffffffff1660e01b815260040161053a9291906115e8565b6020604051808303816000875af1158015610559573d6000803e3d6000fd5b505050506040513d601f19601f8201168201806040525081019061057d9190611626565b50600360009054906101000a900473ffffffffffffffffffffffffffffffffffffffff1673ffffffffffffffffffffffffffffffffffffffff166396f4e9f9826207a120908c866040518563ffffffff1660e01b81526004016105e1929190611580565b602060405180830381858988f11580156105ff573d6000803e3d6000fd5b5050505050506040513d601f19601f82011682018060405250810190610625919061167f565b94508867ffffffffffffffff16857fc15fb748c32ba4eb29c1c311e78533f93b4425eab49ea87c6fe4279ecadca0438a8a8a60008760405161066b9594939291906116ac565b60405180910390a350505050949350505050565b61068761099a565b6000479050600081036106c6576040517fd0d04f6000000000000000000000000000000000000000000000000000000000815260040160405180910390fd5b60008273ffffffffffffffffffffffffffffffffffffffff16826040516106ec90611730565b60006040518083038185875af1925050503d8060008114610729576040519150601f19603f3d011682016040523d82523d6000602084013e61072e565b606091505b5050905080610778573383836040517f9d11f56300000000000000000000000000000000000000000000000000000000815260040161076f93929190611745565b60405180910390fd5b505050565b600160009054906101000a900473ffffffffffffffffffffffffffffffffffffffff1673ffffffffffffffffffffffffffffffffffffffff163373ffffffffffffffffffffffffffffffffffffffff161461080d576040517f08c379a0000000000000000000000000000000000000000000000000000000008152600401610804906117d9565b60405180910390fd5b60008060009054906101000a900473ffffffffffffffffffffffffffffffffffffffff169050336000806101000a81548173ffffffffffffffffffffffffffffffffffffffff021916908373ffffffffffffffffffffffffffffffffffffffff1602179055506000600160006101000a81548173ffffffffffffffffffffffffffffffffffffffff021916908373ffffffffffffffffffffffffffffffffffffffff1602179055503373ffffffffffffffffffffffffffffffffffffffff168173ffffffffffffffffffffffffffffffffffffffff167f8be0079c531659141344cd1fd0a4f28419497f9722a3daafe3b4186f6b6457e060405160405180910390a350565b60008060009054906101000a900473ffffffffffffffffffffffffffffffffffffffff16905090565b61094361099a565b80600260008467ffffffffffffffff1667ffffffffffffffff16815260200190815260200160002060006101000a81548160ff0219169083151502179055505050565b61098e61099a565b61099781610bee565b50565b60008054906101000a900473ffffffffffffffffffffffffffffffffffffffff1673ffffffffffffffffffffffffffffffffffffffff163373ffffffffffffffffffffffffffffffffffffffff1614610a28576040517f08c379a0000000000000000000000000000000000000000000000000000000008152600401610a1f90611845565b60405180910390fd5b565b610aab8363a9059cbb60e01b8484604051602401610a499291906115e8565b604051602081830303815290604052907bffffffffffffffffffffffffffffffffffffffffffffffffffffffff19166020820180517bffffffffffffffffffffffffffffffffffffffffffffffffffffffff8381831617835250505050610d1a565b505050565b610ab8610fae565b6000600167ffffffffffffffff811115610ad557610ad4611865565b5b604051908082528060200260200182016040528015610b0e57816020015b610afb610ff3565b815260200190600190039081610af35790505b50905060405180604001604052808673ffffffffffffffffffffffffffffffffffffffff1681526020018581525081600081518110610b5057610b4f611894565b5b60200260200101819052506040518060a0016040528087604051602001610b779190611276565b6040516020818303038152906040528152602001604051602001610b9a906118e6565b60405160208183030381529060405281526020018281526020018473ffffffffffffffffffffffffffffffffffffffff16815260200160405180602001604052806000815250815250915050949350505050565b3373ffffffffffffffffffffffffffffffffffffffff168173ffffffffffffffffffffffffffffffffffffffff1603610c5c576040517f08c379a0000000000000000000000000000000000000000000000000000000008152600401610c5390611952565b60405180910390fd5b80600160006101000a81548173ffffffffffffffffffffffffffffffffffffffff021916908373ffffffffffffffffffffffffffffffffffffffff1602179055508073ffffffffffffffffffffffffffffffffffffffff1660008054906101000a900473ffffffffffffffffffffffffffffffffffffffff1673ffffffffffffffffffffffffffffffffffffffff167fed8889f560326eb138920d842192f0eb3dd22b4f139c87a2c57538e05bae127860405160405180910390a350565b6000610d7c826040518060400160405280602081526020017f5361666545524332303a206c6f772d6c6576656c2063616c6c206661696c65648152508573ffffffffffffffffffffffffffffffffffffffff16610de19092919063ffffffff16565b9050600081511115610ddc5780806020019051810190610d9c9190611626565b610ddb576040517f08c379a0000000000000000000000000000000000000000000000000000000008152600401610dd2906119e4565b60405180910390fd5b5b505050565b6060610df08484600085610df9565b90509392505050565b606082471015610e3e576040517f08c379a0000000000000000000000000000000000000000000000000000000008152600401610e3590611a76565b60405180910390fd5b6000808673ffffffffffffffffffffffffffffffffffffffff168587604051610e679190611ac7565b60006040518083038185875af1925050503d8060008114610ea4576040519150601f19603f3d011682016040523d82523d6000602084013e610ea9565b606091505b5091509150610eba87838387610ec6565b92505050949350505050565b60608315610f28576000835103610f2057610ee085610f3b565b610f1f576040517f08c379a0000000000000000000000000000000000000000000000000000000008152600401610f1690611b2a565b60405180910390fd5b5b829050610f33565b610f328383610f5e565b5b949350505050565b6000808273ffffffffffffffffffffffffffffffffffffffff163b119050919050565b600082511115610f715781518083602001fd5b806040517f08c379a0000000000000000000000000000000000000000000000000000000008152600401610fa59190611b8e565b60405180910390fd5b6040518060a00160405280606081526020016060815260200160608152602001600073ffffffffffffffffffffffffffffffffffffffff168152602001606081525090565b6040518060400160405280600073ffffffffffffffffffffffffffffffffffffffff168152602001600081525090565b600080fd5b600067ffffffffffffffff82169050919050565b61104581611028565b811461105057600080fd5b50565b6000813590506110628161103c565b92915050565b60006020828403121561107e5761107d611023565b5b600061108c84828501611053565b91505092915050565b60008115159050919050565b6110aa81611095565b82525050565b60006020820190506110c560008301846110a1565b92915050565b600073ffffffffffffffffffffffffffffffffffffffff82169050919050565b60006110f6826110cb565b9050919050565b611106816110eb565b811461111157600080fd5b50565b600081359050611123816110fd565b92915050565b600080604083850312156111405761113f611023565b5b600061114e85828601611114565b925050602061115f85828601611114565b9150509250929050565b6000819050919050565b61117c81611169565b811461118757600080fd5b50565b60008135905061119981611173565b92915050565b600080600080608085870312156111b9576111b8611023565b5b60006111c787828801611053565b94505060206111d887828801611114565b93505060406111e987828801611114565b92505060606111fa8782880161118a565b91505092959194509250565b6000819050919050565b61121981611206565b82525050565b60006020820190506112346000830184611210565b92915050565b6000602082840312156112505761124f611023565b5b600061125e84828501611114565b91505092915050565b611270816110eb565b82525050565b600060208201905061128b6000830184611267565b92915050565b61129a81611095565b81146112a557600080fd5b50565b6000813590506112b781611291565b92915050565b600080604083850312156112d4576112d3611023565b5b60006112e285828601611053565b92505060206112f3858286016112a8565b9150509250929050565b60008151905061130c81611173565b92915050565b60006020828403121561132857611327611023565b5b6000611336848285016112fd565b91505092915050565b61134881611028565b82525050565b6000602082019050611363600083018461133f565b92915050565b600081519050919050565b600082825260208201905092915050565b60005b838110156113a3578082015181840152602081019050611388565b60008484015250505050565b6000601f19601f8301169050919050565b60006113cb82611369565b6113d58185611374565b93506113e5818560208601611385565b6113ee816113af565b840191505092915050565b600081519050919050565b600082825260208201905092915050565b6000819050602082019050919050565b61142e816110eb565b82525050565b61143d81611169565b82525050565b6040820160008201516114596000850182611425565b50602082015161146c6020850182611434565b50505050565b600061147e8383611443565b60408301905092915050565b6000602082019050919050565b60006114a2826113f9565b6114ac8185611404565b93506114b783611415565b8060005b838110156114e85781516114cf8882611472565b97506114da8361148a565b9250506001810190506114bb565b5085935050505092915050565b600060a083016000830151848203600086015261151282826113c0565b9150506020830151848203602086015261152c82826113c0565b915050604083015184820360408601526115468282611497565b915050606083015161155b6060860182611425565b506080830151848203608086015261157382826113c0565b9150508091505092915050565b6000604082019050611595600083018561133f565b81810360208301526115a781846114f5565b90509392505050565b6115b981611169565b82525050565b60006040820190506115d460008301856115b0565b6115e160208301846115b0565b9392505050565b60006040820190506115fd6000830185611267565b61160a60208301846115b0565b9392505050565b60008151905061162081611291565b92915050565b60006020828403121561163c5761163b611023565b5b600061164a84828501611611565b91505092915050565b61165c81611206565b811461166757600080fd5b50565b60008151905061167981611653565b92915050565b60006020828403121561169557611694611023565b5b60006116a38482850161166a565b91505092915050565b600060a0820190506116c16000830188611267565b6116ce6020830187611267565b6116db60408301866115b0565b6116e86060830185611267565b6116f560808301846115b0565b9695505050505050565b600081905092915050565b50565b600061171a6000836116ff565b91506117258261170a565b600082019050919050565b600061173b8261170d565b9150819050919050565b600060608201905061175a6000830186611267565b6117676020830185611267565b61177460408301846115b0565b949350505050565b600082825260208201905092915050565b7f4d7573742062652070726f706f736564206f776e657200000000000000000000600082015250565b60006117c360168361177c565b91506117ce8261178d565b602082019050919050565b600060208201905081810360008301526117f2816117b6565b9050919050565b7f4f6e6c792063616c6c61626c65206279206f776e657200000000000000000000600082015250565b600061182f60168361177c565b915061183a826117f9565b602082019050919050565b6000602082019050818103600083015261185e81611822565b9050919050565b7f4e487b7100000000000000000000000000000000000000000000000000000000600052604160045260246000fd5b7f4e487b7100000000000000000000000000000000000000000000000000000000600052603260045260246000fd5b60006118d060008361177c565b91506118db8261170a565b600082019050919050565b600060208201905081810360008301526118ff816118c3565b9050919050565b7f43616e6e6f74207472616e7366657220746f2073656c66000000000000000000600082015250565b600061193c60178361177c565b915061194782611906565b602082019050919050565b6000602082019050818103600083015261196b8161192f565b9050919050565b7f5361666545524332303a204552433230206f7065726174696f6e20646964206e60008201527f6f74207375636365656400000000000000000000000000000000000000000000602082015250565b60006119ce602a8361177c565b91506119d982611972565b604082019050919050565b600060208201905081810360008301526119fd816119c1565b9050919050565b7f416464726573733a20696e73756666696369656e742062616c616e636520666f60008201527f722063616c6c0000000000000000000000000000000000000000000000000000602082015250565b6000611a6060268361177c565b9150611a6b82611a04565b604082019050919050565b60006020820190508181036000830152611a8f81611a53565b9050919050565b6000611aa182611369565b611aab81856116ff565b9350611abb818560208601611385565b80840191505092915050565b6000611ad38284611a96565b915081905092915050565b7f416464726573733a2063616c6c20746f206e6f6e2d636f6e7472616374000000600082015250565b6000611b14601d8361177c565b9150611b1f82611ade565b602082019050919050565b60006020820190508181036000830152611b4381611b07565b9050919050565b600081519050919050565b6000611b6082611b4a565b611b6a818561177c565b9350611b7a818560208601611385565b611b83816113af565b840191505092915050565b60006020820190508181036000830152611ba88184611b55565b90509291505056fea26469706673582212203f9c8576ee5f8eacee904b02663c15218c98eb1b008929f09f33d91318a2a71764736f6c63430008140033",
  "linkReferences": {},
  "deployedLinkReferences": {}
}